:0200000460009A
:10000000464346420004015600000000010303007D
:1000100000000000000000000000000000000000E0
:1000200000000000000000000000000000000000D0
:1000300000000000000000000000000000000000C0
:1000400000000000000406000000000000000000A6
:100050000000800000000000000000000000000020
:100060000000000000000000000000000000000090
:100070000000000000000000000000000000000080
:10008000EB04180A063204260000000000000000FD
:100090000000000000000000000000000000000060
:1000A0000000000000000000000000000000000050
:1000B0000000000000000000000000000000000040
:1000C0000000000000000000000000000000000030
:1000D0000000000000000000000000000000000020
:1000E0000000000000000000000000000000000010
:1000F0000000000000000000000000000000000000
:1001000000000000000000000000000000000000EF
:1001100000000000000000000000000000000000DF
:1001200000000000000000000000000000000000CF
:1001300000000000000000000000000000000000BF
:1001400000000000000000000000000000000000AF
:10015000000000000000000000000000000000009F
:10016000000000000000000000000000000000008F
:10017000000000000000000000000000000000007F
:10018000000000000000000000000000000000006F
:10019000000000000000000000000000000000005F
:1001A000000000000000000000000000000000004F
:1001B000000000000000000000000000000000003F
:1001C000000100000010000000000000000000001E
:1001D000000001000000000000000000000000001E
:1001E000000000000000000000000000000000000F
:1001F00000000000000000000000000000000000FF
:10020000FFFFFFFFFFFFFFFFFFFFFFFFFFFFFFFFFE
:10021000FFFFFFFFFFFFFFFFFFFFFFFFFFFFFFFFEE
:10100000D10020410020006000000000000000002E
:1010100020100060001000600000000000000000D0
:10102000000000600000800000000000FFFFFFFFE4
:10103000FFFFFFFFFFFFFFFFFFFFFFFFFFFFFFFFC0
:10104000FFFFFFFFFFFFFFFFFFFFFFFFFFFFFFFFB0
:10105000FFFFFFFFFFFFFFFFFFFFFFFFFFFFFFFFA0
:10106000FFFFFFFFFFFFFFFFFFFFFFFFFFFFFFFF90
:1020000000000220F52200607923006077650060FF
:102010007D2300607F2300608123006000000000BA
:1020200000000000000000000000000083230060AA
:10203000852300600000000087230060A126006067
:10204000D1600060D9600060E1600060E96000601C
:10205000F1600060F960006001610060096100608A
:1020600011610060196100602161006029610060F8
:102070003161006039610060416100604961006068
:1020800051610060596100606161006069610060D8
:102090007161006079610060816100608961006048
:1020A0009161006099610060A1610060A9610060B8
:1020B000B1610060B9610060C1610060C961006028
:1020C000D1610060D9610060E1610060E961006098
:1020D000F1610060F9610060016200600962006006
:1020E0001162006019620060216200602962006074
:1020F00031620060396200604162006049620060E4
:102100005162006059620060616200606962006053
:1021100071620060796200608162006089620060C3
:102120009162006099620060A1620060A962006033
:10213000B1620060B9620060C1620060C9620060A3
:10214000D1620060D9620060E1620060E962006013
:10215000F1620060F9620060016300600963006081
:1021600011630060196300602163006029630060EF
:10217000316300603963006041630060496300605F
:10218000A16B0060B56B0060C96B0060DD6B006027
:10219000F16B0060056C0060196C00602D6C0060D4
:1021A000416C0060556C00605163006059630060D1
:1021B000616300606963006071630060796300605F
:1021C00081630060896300609163006099630060CF
:1021D000E1680060F5680060A1630060A9630060C9
:1021E000B1630060B9630060C1630060C9630060EF
:1021F000D1630060D9630060E1630060E96300605F
:10220000F1630060F96300600164006009640060CC
:10221000116400601964006021640060296400603A
:1022200031640060396400604164006049640060AA
:10223000516400605964006061640060696400601A
:10224000716400607964006081640060896400608A
:102250009164006099640060A1640060A9640060FA
:10226000B1640060B9640060C1640060C96400606A
:10227000D1640060D9640060E1640060E9640060DA
:10228000F1640060F9640060016500600965006048
:1022900011650060196500602165006029650060B6
:1022A0003165006039650060416500604965006026
:1022B00051650060696C0060987700600000002044
:1022C0006800000098770060000000000000000037
:1022D00098770060000020200000000068000020C7
:1022E0007C00000000000000000000000000202032
:1022F0000000000072B6104B83F3088801F08AFAE0
:102300000E4B07E003F10C049A685968186800F056
:102310001BF823460A4A9342F4D306E01C46596848
:1023200054F8080B00F01FF82346064A9342F5D3F1
:1023300062B600F0CFF9FEE700000220B82200608C
:10234000DC220060F4220060002393420AD210B421
:1023500050F8044B41F8044B04339342F8D35DF832
:10236000044B70477047002303E0002240F8042B21
:1023700004338B42F9D37047FEE7FEE7FEE7FEE742
:10238000FEE7FEE7FEE7FEE7FEE7FEE7FFFFFFFFF3
:1023900001F0FF01102A2BDB10F0070F08D010F816
:1023A000013B013A8B422DD010F0070F42B3F6D11A
:1023B000F0B441EA012141EA014122F007047FF033
:1023C00000070023F0E80256083C85EA010586EA8A
:1023D000010685FA47F5A3FA87F586FA47F6A5FAC6
:1023E00087F68EB9EED1F0BC01F0FF0102F00702D2
:1023F00032B110F8013B013A83EA010313B1F8D17D
:102400000020704701387047002D06BF354603385D
:10241000073815F0010F07D1013015F4807F02BF96
:10242000013015F4C03F0130F0BC0138704700BFE7
:1024300080B584B000AF786039607B68002BFCD039
:102440003B68002B01D1002313E00C4B1B68002BD1
:1024500001D100230DE03A687968094804F03BFB9C
:102460000346FB81FB89002B01D13B6801E04FF063
:10247000FF3318461037BD4680BD00BF88000020DE
:102480008000002080B58EB000AFB9607B6003464D
:10249000FB731346BB730023FB867B687B61BB68C1
:1024A000BB6100233B7700237B770123BB770123AC
:1024B000FB77002387F82030002387F82130FB7B4F
:1024C00087F82230BB7B87F82C3048F64173FB85B8
:1024D000BB7B012B03D107F114033B6317E0BB7BEC
:1024E000022B03D143F22153FB8610E0BB7B032B6D
:1024F00003D143F22153FB8609E0BB7B042B03D1BC
:1025000043F22153FB8602E043F22153FB86FB8E0C
:1025100043F22152934230D020220021194804F086
:10252000D6FC184B184A1A60164B1B6807F1240298
:102530001146184604F047FA0346FB86FB8E002B33
:10254000FCD1124B1B780F4B1B681149184604F045
:102550006AFA0346FB86FB8E002BFCD1094B1B68F5
:102560000C49184604F087FA0346FB86FB8E002BC5
:10257000FCD1044B1B68084A1360FB8E18463837A1
:10258000BD4680BD680000206C000020E0000020F7
:1025900080000020840000208800002080B5A4B0C6
:1025A00000AF786039600023C7F888300023C7F88F
:1025B0008C300023BB6007F10C037C2200211846FD
:1025C00004F085FC0E4B1B68002B12D007F10802AB
:1025D0000C4B3968786803F025FCC7F88800D7F8F9
:1025E000882007F1080311461846FFF721FFC7F8B6
:1025F0008C00D7F88C3018469037BD4680BD00BFA0
:1026000088000020195A006080B483B000AF0346F0
:102610003960FB80B7F90630002B0ADB3B68DAB281
:102620000C49B7F906301201D2B20B4483F80023EB
:102630000AE03B68DAB20849FB8803F00F03043B69
:102640001201D2B20B441A7600BF0C37BD465DF8BA
:10265000047B704700E100E000ED00E080B582B04F
:1026600000AF78607B68013BB3F1807F01D3012329
:102670000FE00A4A7B68013B53600F214FF0FF30A7
:10268000FFF7C2FF054B00229A60044B07221A6035
:10269000002318460837BD4680BD00BF10E000E0AB
:1026A00080B400AF044B1B680133034A136000BFC2
:1026B000BD465DF8047B70478C00002080B400AFFD
:1026C000034B1B681846BD465DF8047B704700BF8E
:1026D0008C00002080B582B000AF01F077FB04F0E1
:1026E000E2FB04F079FB04F084FB04F0D0FA124B17
:1026F0001B68124AA2FB03239B091846FFF7AEFF93
:102700000F4803F0BCF9FFF7D9FF78600D4B1B6849
:1027100001330C4A136000BFFFF7D0FF02467B680D
:10272000D31AB3F57A7FF1D3FFF7C8FF7860082199
:10273000054803F011FFE9E700000020D34D6210C7
:10274000BC7100609000002000C01B4080B400AF4E
:10275000074BD3F8703203F01003002B02D1054B66
:102760001B6800E0044B1846BD465DF8047B7047CB
:1027700000800D409400002000366E0180B582B0CC
:1027800000AF0346FB71FB7983F00103DBB2002B42
:1027900005D1144B144AC121144802F087FA144B96
:1027A0004FF08042C3F8582100BF114BD3F870326C
:1027B00003F48033002BF8D00D4B4FF48032C3F874
:1027C000542100BF0A4BD3F8503103F40043002BCF
:1027D000F8D0074B4FF48032C3F8582100BF0837B8
:1027E000BD4680BDCC710060F0710060DC7100609E
:1027F00000800D4080B483B000AF0346FB71FB79CD
:10280000002B04D1074B1022C3F8742203E0054BC0
:102810001022C3F8782200BF0C37BD465DF8047B58
:10282000704700BF00800D4080B400AF064BD3F866
:102830007032054A43F00103C2F8703200BFBD4652
:102840005DF8047B704700BF00800D4080B483B00A
:1028500000AF7860154B1B6823F4E0327B681B796E
:102860009B039BB21343114A43F4803313600F4B15
:102870001A680F4B13407A68126802F07F02134304
:102880000A4A43F40053136000BF084B1B68002B37
:10289000FBDA064B1B68054A23F48033136000BF44
:1028A0000C37BD465DF8047B704700BF00800D40CB
:1028B00080CFFFFF80B483B000AF7860224B1B6BEA
:1028C00023F4E0327B681B7B9B039BB213431E4ABD
:1028D00043F4803313631C4B1A6B1C4B13407A6810
:1028E000127802F001021343174A43F400531363B2
:1028F0007B685B68144A23F0404313657B689B68E0
:10290000114A23F0404313667B685B8AC3F30E02CF
:102910007B681B7CDB039BB21A437B68DB891B044F
:10292000094913430B6400BF074B1B6B002BFBDAF9
:10293000054B1B6B044A23F48033136300BF0C3731
:10294000BD465DF8047B704700800D40FECFFFFF61
:1029500080B400AF034B00221A6200BFBD465DF891
:10296000047B704700800D4080B400AF044B4FF4EF
:1029700080521A6700BFBD465DF8047B704700BFF8
:1029800000800D4080B400AF044B4FF48052C3F878
:10299000A02000BFBD465DF8047B704700800D405D
:1029A00080B485B000AF78607B689B7803F0030249
:1029B0007B685B799B0003F00C031343FB60224BA5
:1029C000D3F8E03023F4E0327B68DB789B039BB2E2
:1029D00013431D4A43F48033C2F8E0307B681B7810
:1029E000002B03D0FB6843F40053FB607B681B792A
:1029F000002B03D0FB6843F48013FB607B685B789B
:102A0000002B03D0FB6843F40013FB600E4BD3F89C
:102A1000E0200E4B13400C49FA681343C1F8E03034
:102A200000BF094BD3F8E030002BFADA064BD3F89D
:102A3000E030054A23F48033C2F8E03000BF143799
:102A4000BD465DF8047B704700800D40F0EFFFFF4E
:102A50002DE9B04F98B000AFF864F96CA34803F0CB
:102A600048FE034683F00103DBB2002B01D00023B4
:102A70000BE2F96C9D4803F05AFEF865F96C9B482F
:102A800003F01EFE0346002B01D0FB6DFDE1FA6C46
:102A9000974B9A4200F0E481FA6C954B9A4200F20F
:102AA000F081FA6C934B9A4200F0CD81FA6C914B15
:102AB0009A4200F2E681FA6C8F4B9A4200F0B7819D
:102AC000FA6C8D4B9A4200F2DC81FA6C8B4B9A4285
:102AD00000F02681FA6C894B9A4200F2D281FA6C9E
:102AE000874B9A427DD0FB6C854A934200F2C981A4
:102AF000FB6C844A934220D0FB6C824A934200F2E2
:102B0000C081FB6C804A934200F0AD81FB6C7E4A31
:102B1000934200F2B681FB6C0D2B04D0FB6C7B4A18
:102B2000934250D0ADE1714B1B6803F07F03FA6D07
:102B300002FB03F35B08FB65A6E1FB6D00223B642F
:102B40007A646A4B1B6D0022BB63FA63D7E91045B8
:102B50002B46D7E90E89424602FB03F24B4621463B
:102B600001FB03F3134422464146A2FB01AB5B4445
:102B70009B46C7E914ABC7E914AB5C4B1B6E002244
:102B80003B607A60D7E90023D7E9140101F00CFF1C
:102B900002460B46C7E91423544B1B6B03F0010399
:102BA000002B05D0FB6D162202FB03F3FB6505E04D
:102BB000FA6D13469B0013449B00FB653B6DFA6D59
:102BC0001344FB6560E1494B1B6903F00203002BD2
:102BD00001D0162200E01422FB6D02FB03F3FB651B
:102BE00052E1424B1B6F03F07F03BB65FB6D00227C
:102BF0003B637A633D4BD3F880300022BB62FA62BC
:102C0000D7E90C452B46D7E90AAB524602FB03F243
:102C10005B46214601FB03F3134422465146A2FBC7
:102C200001894B449946C7E91489C7E914892F4B98
:102C3000D3F890300022BB60FA60D7E90223D7E9CD
:102C4000140101F0B1FE02460B46C7E91423FB6DE7
:102C5000BA6D03FB02F23B6D1344FB65234B1B6F04
:102C600003F4C013B3F5801F17D0B3F5801F0DD840
:102C7000002B03D0B3F5002F04D007E0FB6D9B08B9
:102C8000FB650BE0FB6D5B08FB6507E0204B214A11
:102C900040F21741204802F009F800BF134BD3F867
:102CA00070211E4B13401D4A93420ED01B4A934283
:102CB00013D8B3F5000F17D0B3F5000F0DD8002BC4
:102CC00012D0B3F5004F04D007E0FB6D9B08FB6505
:102CD0000BE0FB6D5B08FB6507E00D4B0D4A40F216
:102CE0002B410D4801F0E2FF00BFCDE000800D4018
:102CF0001500E0001400E0000D00E0000D00A00051
:102D00000D0070000D0030000D0020000D001000BF
:102D1000E871006008720060DC7100600080800073
:102D20005C4BD3F8A03003F07F03BB65FB6D002242
:102D30003B627A62574BD3F8B0300022BB61FA6134
:102D4000D7E908894B46D7E906AB524602FB03F2A6
:102D50005B46414601FB03F3134442465146A2FB46
:102D600001452B441D46C7E91445C7E91445494BA5
:102D7000D3F8C03000223B617A61D7E90423D7E958
:102D8000140101F011FE02460B46C7E91423FB6D46
:102D9000BA6D03FB02F23B6D1344FB653D4BD3F868
:102DA000A03003F4C013B3F5801F17D0B3F5801F14
:102DB0000DD8002B03D0B3F5002F04D007E0FB6D36
:102DC0009B08FB650BE0FB6D5B08FB6507E0324B86
:102DD000324A4FF48B61324801F068FF00BF2D4B3F
:102DE000D3F8703103F04043B3F1404F0ED0B3F14C
:102DF000404F13D8B3F1004F17D0B3F1004F0DD8A7
:102E0000002B12D0B3F1804F04D007E0FB6D9B087C
:102E1000FB650BE0FB6D5B08FB6507E01E4B1F4A83
:102E200040F26C411E4801F041FF00BF2CE0194BFD
:102E3000D3F8E03003F00303BB651A4ABB6D52F8C8
:102E40002330FB6520E0134BD3F8E0309B0803F000
:102E50000303BB65134ABB6D52F82330FB6513E0D7
:102E6000114BFB6510E00B4B1B6A03F00203002BB8
:102E700001D0162200E01422FB6D02FB03F3FB6578
:102E800002E00023FB6500BFFB6D18466037BD46BE
:102E9000BDE8B08F00800D40E871006008720060EE
:102EA000DC7100601C72006040787D0180B485B0E8
:102EB00000AF03460A46FB711346BB71FB79FB600A
:102EC000124BD3F80021FB68DB00BF2101FA03F3AA
:102ED000DB431340BB60FB68DB0080229A400B4958
:102EE000BB681343C1F80031BB7903F03F02FB68B4
:102EF000DB009A400549BB681343C1F8003100BFAD
:102F00001437BD465DF8047B704700BF00800D405C
:102F100080B586B000AF03460A46FB8013467B713E
:102F2000B7F906301B0A7B61FB8803F01F033B6186
:102F30007B69072B06D90E4B0E4A40F2DE510E4834
:102F400001F0B4FE7B699A000C4B1344FB60032232
:102F50003B6902FA03F17A793B6902FA03F31A46F4
:102F6000F86803F0FEFB00BF1837BD4680BD00BF08
:102F70002C720060CC7200603C72006068C00F4030
:102F800080B584B000AF78600023FB6009E00E4A92
:102F9000FB6852F823307A689A4206D0FB68013306
:102FA000FB60FB68092BF2D900E000BFFB68092B2E
:102FB00005D9064B064A3921064801F077FEFB6821
:102FC00018461037BD4680BD487200607C720060B4
:102FD000B8720060A072006080B586B000AFF86083
:102FE000B9607A60F868FFF7CBFF78617B69052BE1
:102FF0000DD8214A7B6932F91330B3F1FF3F06D077
:103000001D4A7B6932F91330184603F0D2FBFB6886
:103010005A690121BB6801FA03F3DB431A40FB68DC
:103020005A617B681B78002B0AD1FB685A68012122
:10303000BB6801FA03F3DB431A40FB685A600FE0F8
:103040007B685B781A46B968F86800F017F8FB6887
:103050005A680121BB6801FA03F31A43FB685A60FE
:103060007B689B781A46B968F86803F0B1FB00BF2B
:103070001837BD4680BD00BF7072006080B584B057
:1030800000AFF860B9601346FB71BB681F2B05D910
:103090000C4B0D4A71210D4801F008FEFB79002B05
:1030A00006D10122BB689A40FB68C3F8882005E07E
:1030B0000122BB689A40FB68C3F8842000BF103728
:1030C000BD4680BDAC720060E0720060A07200601E
:1030D00080B487B000AFF860B9601346FB71BB687D
:1030E0003B61FB68DA690121BB6801FA03F3DB434A
:1030F0001A40FB68DA61BB680F2B03D8FB680C33FE
:103100007B6105E0FB6810337B613B69103B3B61F1
:10311000FB79013B042B52D801A252F823F000BFE7
:10312000353100604D3100607131006095310060D3
:10313000AB3100607B691A683B695B00032101FACF
:1031400003F3DB431A407B691A6039E07B691A6834
:103150003B695B00032101FA03F3DB431A403B693F
:103160005B00012101FA03F31A437B691A6027E02F
:103170007B691A683B695B00032101FA03F3DB43B7
:103180001A403B695B00022101FA03F31A437B6991
:103190001A6015E07B691A683B695B00032101FA3C
:1031A00003F31A437B691A600AE0FB68DA690121BC
:1031B000BB6801FA03F31A43FB68DA6100E000BF61
:1031C00000BF1C37BD465DF8047B704780B586B0F4
:1031D00000AF03460A46FB8013467B71B7F9063001
:1031E0001B0A7B61FB8803F01F033B617B69072B94
:1031F00006D90E4B0E4A40F2DE510E4801F056FD44
:103200007B699A000C4B1344FB6003223B6902FA72
:1032100003F17A793B6902FA03F31A46F86803F07E
:10322000E8FA00BF1837BD4680BD00BF2C720060B1
:103230004C7400603C72006068C00F4080B584B080
:1032400000AF78600023FB6009E00E4AFB6852F88B
:1032500023307A689A4206D0FB680133FB60FB6832
:10326000082BF2D900E000BFFB68082B05D9064BFC
:10327000064A7B21064801F019FDFB681846103705
:10328000BD4680BDF0720060287300602C74006041
:103290005073006080B58CB000AFF860B9607A60A0
:1032A000BB68002B05D1764B764AF221764801F0B7
:1032B000FDFCBB681B68002B05D1744B714AF321E0
:1032C000714801F0F3FCBB681B7A032B05D9704BE6
:1032D0006C4AF5216C4801F0E9FCBB685B7A032B72
:1032E00005D96C4B674AF621674801F0DFFC0023E3
:1032F000FB62BB681B68FB61002387F82330002357
:10330000FB84042387F8223041E07A6813469B004F
:1033100013445B001946BB681B6897F8222002FB28
:1033200003F3B1FBF3F305335B4AA2FB0323DB0892
:10333000BB84BB8C002B01D10123BB8497F82230C6
:10334000BA8C02FB03F37A68B2FBF3F37B61BB68D0
:103350001B687A699A4204D9BB681B687A69D31AD8
:1033600003E0BB681A687B69D31A3B613A69FB6961
:103370009A4207D83B69FB6197F8223087F82330DF
:10338000BB8CFB8497F82230013387F8223097F802
:103390002230202BB9D9BB681B68404AA2FB03230B
:1033A0005A0913465B001344FA699A4203D940F262
:1033B0002153FB62FEE0F868FFF740FFB861384A2E
:1033C000BB6932F91330184603F03BFAF86803F092
:1033D00047FAFB681B69BB6297F82330032B07D9B8
:1033E00097F82330072B03D8BB6A43F40033BB6242
:1033F000BB6A23F0F853BB6297F82330013B1B06EE
:1034000003F0F853BA6A1343BB62BA6A254B134000
:10341000BB62FB8CC3F30C02BB6A1A43FB681A61E4
:10342000FB681B6923F00052FB681A61FB689A690C
:103430001D4B1340BB62BB681B791A46BB68DB7B24
:103440001B0203F4E0631A43BB689B7B9B0003F001
:1034500004031343BA6A1343BB62BB685B79012B55
:1034600024D1BB681B79002B04D0BB6A23F4006312
:10347000BB6223E0BB6A43F40063BB621EE000BF93
:10348000707300604074006050730060807300606F
:103490009C730060E4730060CDCCCCCC1F85EB51F5
:1034A0001473006000E0FFFFE8F8FFFFBB681B79C2
:1034B000002B03D0BB6A43F01003BB62FB68BA6AFF
:1034C0009A61FB681B6923F40053BB62BB68DB791C
:1034D0005B0303F40052BB6A1A43FB681A61BB68C2
:1034E0005B7A1B04BA68127A1A43FB68DA62FB68DB
:1034F0009B6A43F08802FB689A62FB689B6A43F40C
:103500004042FB689A622E4BBB62BB6A43F00043A9
:10351000BB62BB6A43F44043BB62FB685A6ABB6848
:103520005B7B1B0103F01001BB681B7B5B0103F09D
:1035300020030B431A43FB685A62BB689B7A002B3B
:1035400005D0FB685B6A43F00802FB685A62BB68FF
:10355000DB7A002B05D0FB685B6A43F00102FB6855
:103560005A62BB689B79002B04D0BB6A43F00053BE
:10357000BB6203E0BB6A23F00053BB62FB685A697D
:10358000BB6A1A43FB685A61FB689B69BB62BB68F4
:103590001B7C002B03D0BB6A43F40023BB62BB68D7
:1035A0005B7C002B03D0BB6A43F48023BB62FB68C7
:1035B000BA6A9A61FB6A18463037BD4680BD00BFC3
:1035C00000001F4080B582B000AF78607B68002BA0
:1035D00006D11F4B1F4A40F206211F4801F066FB2F
:1035E00014220021786803F072FC7B684FF4E1320A
:1035F0001A607B6800221A717B6800225A717B680E
:1036000000229A717B680022DA717B6800221A72AC
:103610007B6800225A727B6800229A727B680022C3
:10362000DA727B6800225A737B6800221A737B6807
:1036300000229A737B680022DA737B6800221A7476
:103640007B6800225A7400BF0837BD4680BD00BFAA
:1036500070730060607400605073006080B586B065
:1036600000AFF860B9607A60BB68002B06D1164BDA
:10367000164A40F29631164801F018FBBB687B6190
:103680007B683B6111E000BFFB685B6903F40003EA
:10369000002BF9D07B691B781A46FB68DA617B69DD
:1036A00001337B613B69013B3B613B69002BEAD104
:1036B00000BFFB685B6903F48003002BF9D0002393
:1036C00018461837BD4680BD60730060787400608E
:1036D0005073006080B500AF054B1B68054A526807
:1036E000114605489847BFF34F8F00BF00BF80BD0C
:1036F000BC000020980000200040184080B500AFBA
:10370000054B1B68054A9268114605489847BFF368
:103710004F8F00BF00BF80BDBC000020980000207C
:103720000080184080B500AF054B1B68054AD26881
:10373000114605489847BFF34F8F00BF00BF80BDBB
:10374000BC0000209800002000C0184080B500AFE9
:10375000054B1B68054A1269114605489847BFF397
:103760004F8F00BF00BF80BDBC000020980000202C
:103770000000194080B500AF054B1B68054A52692F
:10378000114605489847BFF34F8F00BF00BF80BD6B
:10379000BC000020980000200040194080B500AF18
:1037A000054B1B68054A9269114605489847BFF3C7
:1037B0004F8F00BF00BF80BDBC00002098000020DC
:1037C0000080194080B500AF054B1B68054AD269DF
:1037D000114605489847BFF34F8F00BF00BF80BD1B
:1037E000BC0000209800002000C0194080B500AF48
:1037F000054B1B68054A126A114605489847BFF3F6
:103800004F8F00BF00BF80BDBC000020980000208B
:1038100000001A4080B500AF484BD3F88830474AC3
:1038200043F47003C2F88830444B454A9A60454BD4
:103830001B899BB2434A23F001039BB21381424B85
:103840001B899BB2404A23F001039BB213813D4B7D
:103850001B889BB203F00403002B07D0394B1B8855
:103860009BB2384A23F004039BB21380364B1B886B
:103870009BB203F00403002B07D0334B1B889BB291
:10388000314A23F004039BB21380304B1B6803F4CE
:103890000053002B03D02D4B2D4A5A6007E02B4BD1
:1038A0004CF220525A60294B4DF628125A60274B91
:1038B0004FF6FF729A60254B1B6823F0A003234A42
:1038C00043F020031360234B1B6803F00103002B1C
:1038D00005D0204B1B681F4A23F001031360174BD0
:1038E0005B6903F40033B3F5003F22D0134B5B69EF
:1038F00003F40033002B1BD1BFF34F8F00BFBFF386
:103900006F8F00BF0D4B0022C3F85022BFF34F8FC3
:1039100000BFBFF36F8F00BF084B5B69074A43F4DA
:1039200000335361BFF34F8F00BFBFF36F8F00E0D1
:1039300000BF02F0ABFF00BF80BD00BF00ED00E0A4
:103940000020006000800B4000000D4000C00B40D4
:1039500020C528D910E000E080B58AB000AF7860BB
:1039600039600023FB8407F10C031846FFF72AFE99
:103970003B685B68FB603B681B7A3B743B685B7A27
:10398000FB743B689B7A002B14BF01230023DBB23E
:103990007B773B68DB7A002B14BF01230023DBB26B
:1039A0003B773B681B7B002B14BF01230023DBB25A
:1039B000BB753B685B7B002B14BF01230023DBB28C
:1039C000FB750123BB760123FB763B689B7B1A4684
:1039D0000B4B53F822003B681A6807F10C03194699
:1039E000FFF758FC38623B6A002B04D0386A02F0BB
:1039F00054FF0346FB84FB8C18462837BD4680BD28
:103A00009074006080B584B000AF786039607B68E6
:103A1000002B06D11F4B204A40F21D211F4801F008
:103A200045F93B68002B06D11D4B1B4A40F21E2175
:103A30001A4801F03BF93B689B7B082B06D9194BD0
:103A4000154A40F21F21154801F030F93B689B7B75
:103A50001A46154B53F82230002B06D1134B0E4A51
:103A60004FF408710D4801F021F939687868FFF7C3
:103A700073FF0346FB81FB89002B05D17B68BB608C
:103A80003B689A7BBB681A70FB8918461037BD46A5
:103A900080BD00BFB474006064750060C4740060D1
:103AA00070730060DC7400609074006028750060C2
:103AB00080B586B000AFF860B9607A60FB68002B13
:103AC00006D1164B164A4FF41E71164801F0EEF857
:103AD000BB68002B06D1144B114A40F279211148E2
:103AE00001F0E4F87B68002B06D1104B0C4A40F241
:103AF0007A210C4801F0DAF8FB687B617B691B785E
:103B00001A460B4B53F822307A68B9681846FFF70B
:103B1000A5FD002318461837BD4680BDB47400606B
:103B200074750060C4740060607300605875006054
:103B30009074006080B584B000AF0346FB71FB79E0
:103B40000D4A52F82330FB60FB681B7C1A460B4B76
:103B500053F822300121184602F0B3FEFB689B683F
:103B6000002B05D0FB689B68FA68D268104698471E
:103B700000BF1037BD4680BDC00000208C750060BE
:103B8000B0B58EB000AF0346FB712A4B1B687B6358
:103B9000294B07F108041D460FCD0FC40FCD0FC4EC
:103BA00095E8030084E80300FB799B0038333B442D
:103BB00053F8303C184602F0D9FF3863FB799B007C
:103BC00038333B4453F8303C396B184602F0DAFF87
:103BD00028E07B6B5B7B03F01C03DBB2002B1ED069
:103BE0007B6B1B7BC3F30303DBB21A46FB79934267
:103BF00015D17B6B9B89C3F30413DBB21A463B6B75
:103C0000D34003F00103002B09D07B6B5B68002BD2
:103C100005D07B6B5B687A6B9268104698477B6B2C
:103C20001B687B637B6B002BD3D100BF00BF383791
:103C3000BD46B0BDCC0000209875006080B483B054
:103C400000AF78600B4A7B6843F0010353600A4B76
:103C50005B6A094A43F480335362BFF34F8F00BF5E
:103C6000BFF36F8F00BF00BF0C37BD465DF8047B0C
:103C7000704700BF90ED00E000ED00E080B400AFC1
:103C8000BFF35F8F00BF084B5B6A074A23F48033A2
:103C90005362064B5B68054A23F00103536000BF83
:103CA000BD465DF8047B704700ED00E090ED00E05C
:103CB00080B483B000AF78607B68DAB20C4B1344F9
:103CC0001A687B685B0BC3F30C017B681B0A03F06B
:103CD0001F0301FA03F31A407B681B0A03F01F035A
:103CE00022FA03F318460C37BD465DF8047B704793
:103CF00000C00F4080B483B000AF78607B68DAB258
:103D00000C4B13441A687B685B0BC3F30C017B6894
:103D10001B0A03F01F0301FA03F31A407B681B0A16
:103D200003F01F0322FA03F318460C37BD465DF873
:103D3000047B704700C00F4080B400AF074BD3F83E
:103D4000703203F01003002B02D1054B1B6800E01A
:103D5000044B1846BD465DF8047B704700800D405B
:103D60009400002000366E0190B583B000AF134878
:103D7000FFF79EFF0346002B10D11148FEF768FEA7
:103D80000346104AA2FB03239C080F48FFF7B2FF2B
:103D900003460133B4FBF3F37B600AE0FFF7CCFF8B
:103DA00004460948FFF7A6FF03460133B4FBF3F3CB
:103DB0007B607B6818460C37BD4690BD242600808A
:103DC0000D001000ABAAAAAA24E0078080B586B037
:103DD00000AF934B5B6903F40033B3F5003F16D19A
:103DE000BFF34F8F00BFBFF36F8F00BF8C4B5B697A
:103DF0008B4A23F400335361894B0022C3F85022CD
:103E0000BFF34F8F00BFBFF36F8F00BF00BF844B66
:103E10005B6903F48033B3F5803F4CD1804B0022C3
:103E2000C3F88420BFF34F8F00BF7D4B5B697C4A92
:103E300023F480335361BFF34F8F00BF784A3B1D9B
:103E4000C2F87032764A3B46C2F87032744A07F1C3
:103E50000803C2F87032BFF34F8F00BFBFF36F8FFC
:103E600000BF6F4BD3F88030BB60BB685B0BC3F304
:103E70000E037B60BB68DB08C3F309033B607B6810
:103E80005A0143F6E07313403A68920764491343BA
:103E9000C1F874323B685A1E3A60002BEFD17B6840
:103EA0005A1E7A60002BE5D1BFF34F8F00BFBFF3DE
:103EB0006F8F00BF00BFFFF7E1FE5A4B1022DA60A0
:103EC000584B594A1A61574B584ADA60554B584A71
:103ED0001A61544B574ADA60524B554A1A61514B9A
:103EE000554ADA604F4B554A1A614E4B1422DA603C
:103EF0004C4B534A1A614B4B1522DA60494B514ADD
:103F00001A61484B504ADA60464B4E4A1A61454B9B
:103F10004E4ADA60434B4E4A1A61424B4D4ADA60D0
:103F2000404B4D4A1A613F4B4C4ADA603D4B4C4A7C
:103F30001A613C4B4B4ADA603A4B4B4A1A61394B97
:103F40004A4ADA60374B4A4A1A610420FFF776FE84
:103F5000334B5B6903F48033002B38D1304B0022A4
:103F6000C3F88420BFF34F8F00BF2D4BD3F88030B0
:103F70007B617B695B0BC3F30E033B617B69DB08F1
:103F8000C3F30903FB603B695A0143F6E073134036
:103F9000FA68920722491343C1F86032FB685A1E3F
:103FA000FA60002BEFD13B695A1E3A61002BE5D134
:103FB000BFF34F8F00BF1A4B5B69194A43F480333C
:103FC0005361BFF34F8F00BFBFF36F8F00E000BF9F
:103FD000134B5B6903F40033002B1BD1BFF34F8FEE
:103FE00000BFBFF36F8F00BF0D4B0022C3F85022FC
:103FF000BFF34F8F00BFBFF36F8F00BF084B5B69EC
:10400000074A43F400335361BFF34F8F00BFBFF340
:104010006F8F00E000BF00BF1837BD4680BD00BFF6
:1040200000ED00E090ED00E03F0000101100008086
:104030003900100312000060130000602D00030619
:104040003B0010032100030316000020170020206E
:104050002500030318002820230003031900008013
:10406000310003031B0000402B0010031C00004222
:104070002700100380B584B000AF786039607B689A
:104080009B0EFB607B68DAB2214B13441A687B6895
:104090005B0BC3F30C017B681B0A03F01F0301FADF
:1040A00003F3DB4302EA03017B681B0A03F01F03EF
:1040B0003A689A407B685B0BC3F30C007B681B0A71
:1040C00003F01F0300FA03F31A407B68D8B2104BC9
:1040D0000344184641EA02030360FB68202B06D91B
:1040E0000C4B0D4A4FF4B1610C4800F0DFFDFB684A
:1040F000202B09D000BF064B9A6CFB6822FA03F311
:1041000003F00103002BF6D100BF1037BD4680BD80
:1041100000C00F40E87500609C7600600876006083
:1041200080B584B000AF786039607B689B0EFB601F
:104130007B68DAB2214B13441A687B685B0BC3F3CC
:104140000C017B681B0A03F01F0301FA03F3DB4336
:1041500002EA03017B681B0A03F01F033A689A40D6
:104160007B685B0BC3F30C007B681B0A03F01F0327
:1041700000FA03F31A407B68D8B2104B0344184688
:1041800041EA02030360FB68202B06D90C4B0D4A61
:1041900040F2BC510C4800F089FDFB68202B09D08F
:1041A00000BF064B9A6CFB6822FA03F303F001038D
:1041B000002BF6D100BF1037BD4680BD00C00F40B8
:1041C000E87500608C7600600876006080B586B087
:1041D00000AF03460A46FB8013467B71B7F90630F1
:1041E0001B0A7B61FB8803F01F033B617B69072B84
:1041F00006D90E4B0E4A40F2DE510E4800F056FD35
:104200007B699A000C4B1344FB6003223B6902FA62
:1042100003F17A793B6902FA03F31A46F86802F06F
:1042200047FD00BF1837BD4680BD00BF2C7200603F
:10423000787600600876006068C00F4080B483B074
:1042400000AF7860044A7B68136000BF0C37BD463E
:104250005DF8047B704700BF9400002080B485B0F7
:1042600000AF78600B46FB701346BB707B689A68A2
:104270000A4B1340FB60FB789B0603F08062FB68EF
:104280001A43BB781B0403F47F031A437B689A60CC
:1042900000BF1437BD465DF8047B7047FFFF00FB8D
:1042A00080B500AFDB4BD3F8C032DA4A43F4803339
:1042B000C2F8C032D74BD3F8C032D64A23F4003309
:1042C000C2F8C032D448FFF7B9FF0020FEF756FA13
:1042D000FEF7AAFA0120FEF78DFAD04B1B6823F0F7
:1042E000FF03CE4A43F07F0313600121CC48FFF760
:1042F000C1FE0121CB48FFF7BDFECB4BDB6823F0AD
:104300001F03C94A43F01303D36000BFC64B1B68A9
:1043100003F00043B3F1004FF8D10021C348FFF789
:10432000FFFE4FF4887002F0EBFC4FF4847002F053
:10433000E7FC40F2162002F0E3FC4FF4067002F0B6
:10434000DFFC40F20E2002F0DBFC0321B848FFF74F
:10435000E7FE0121B748FFF7E3FE0021B648FFF76B
:10436000DFFE4FF48A7002F0CBFC4FF48B7002F04A
:10437000C7FC182002F0C4FC1A2002F0C1FC4FF464
:10438000867002F0BDFC2021AC48FFF7C9FE40F268
:10439000026002F0B5FC0121A948FFF7C1FE00212F
:1043A000A848FFF767FE40F2046002F0A9FC012173
:1043B000A548FFF7B5FE0021A448FFF75BFE4FF4C8
:1043C000417002F09DFC04214FF21400FFF7A8FE9B
:1043D00000219F48FFF74EFE00219E48FFF74AFE4E
:1043E00040F2027002F08CFC01219B48FFF798FE1E
:1043F00003219A48FFF73EFE40F2022002F080FCC3
:1044000001219748FFF78CFE00219648FFF732FE06
:104410004FF4807002F074FC4FF4817002F070FC75
:104420004FF4827002F06CFC4FF4837002F068FC71
:1044300003218D48FFF774FE02218C48FFF71AFE16
:10444000162002F05DFC03218948FFF769FE022176
:104450008848FFF70FFE40F2125002F051FC032192
:104460008548FFF75DFE01218448FFF759FE0021D2
:104470008348FFF7FFFD40F2145002F041FC032196
:104480008048FFF74DFE01217F48FFF749FE0021DC
:104490007E48FFF7EFFD40F2165002F031FC032199
:1044A0007B48FFF73DFE01217A48FFF739FE0021E6
:1044B0007948FFF7DFFD40F2062002F021FC4FF4BF
:1044C000027002F01DFC40F20A2002F019FC0021EB
:1044D0007248FFF725FE00217148FFF7CBFD0E2043
:1044E00002F00EFC122002F00BFC40F2067002F00B
:1044F00007FC102002F004FC142002F001FC4FF431
:10450000E16002F0FDFB01216648FFF709FE022190
:104510006548FFF7AFFD4FF4A36002F0F1FB1C20EC
:1045200002F0EEFB0C2002F0EBFB4FF48C7002F07B
:10453000E7FB40F2023002F0E3FB40F2063002F00B
:10454000DFFB40F21A5002F0DBFB40F20E6002F09B
:10455000D7FB00215548FFF7E3FD00215448FFF742
:1045600089FD40F20A3002F0CBFB01215148FFF7F0
:10457000D7FD03215048FFF7D3FD05214F48FFF732
:1045800079FD40F20E5002F0BBFB01214C48FFF7D1
:10459000C7FD07214B48FFF7C3FD03214A48FFF73A
:1045A00069FD40F2025002F0ABFB01214748FFF7E2
:1045B000B7FD07214648FFF7B3FD03214548FFF744
:1045C00059FD4FF4407002F09BFB01214248FFF778
:1045D000A7FD07214148FFF7A3FD03214048FFF74E
:1045E00049FD00213F48FFF745FD3F48FEF72EF902
:1045F0003E48FEF75FF91B210020FEF757FC102113
:104600000120FEF753FC18210220FEF74FFC102179
:1046100003206DE000800D4000366E0100C00F40A9
:10462000186C0080143900140000084014EA0004DB
:104630001468008010E0004014FB00801CE007803C
:1046400024EB00801C30008024F000801C310080AE
:10465000142700801426008018FD00801868008050
:104660003CEB00803C69008018FA008018640080F0
:1046700024790080186E008028E6008028E00780FA
:104680001C6A00802CE600802CE007801C6C0080F7
:1046900028F6008028F007801C6E008038F3078021
:1046A0003832008020E207802068008024E0078004
:1046B0002426008038EC008018F7008038EF008056
:1046C00030F9008030F600803074008030EC0080DB
:1046D00030E900803067008028E9008028F90080F8
:1046E000207300800C200080547600605C760060AF
:1046F000FEF7DCFB01226849684802F010FBFEF778
:1047000033F901226649654802F009FB634BD3F88F
:104710007031624A23F40043C2F870315F4BD3F822
:1047200070315E4A23F40003C2F870315B4B1B6F9B
:104730005A4A43F400531367FEF724F9574BD3F852
:10474000A030564A43F48033C2F8A030534BD3F81C
:104750007031524A23F04043C2F870314F4BD3F8C6
:10476000A0304E4A43F40053C2F8A0304D48FEF743
:1047700017F901224C49494802F0D1FAFEF7E8F84E
:1047800001224A49454802F0CAFA444B1B6A434A8F
:1047900043F40053136203214548FFF76BFC0021EB
:1047A0004448FFF767FC00214348FFF763FC002102
:1047B0004248FFF75FFC394BD3F86031374A23F0AA
:1047C0001F03C2F860313E4B1B6E3D4A23F070035D
:1047D00013663B4B1B6E23F00F03394A43F0010372
:1047E0001366374B1B6E364A23F460031366344B53
:1047F0001B6E23F4F813324A43F490131366304BC4
:104800001B6E2F4A23F4807313662D4B1B6E2C4AAC
:1048100023F0800313662A4B1B6E294A23F0807312
:10482000136600220021274802F0A0FA002203218B
:10483000244802F09BFA00220621224802F096FA50
:10484000002208211F4802F091FA00220A211D4887
:1048500002F08CFA002200211A48FFF7FFFC194BE6
:104860005B68184A23F400335360164B5B68154AA3
:1048700023F480235360134B5B69124A23F0805367
:104880005361104B5B690F4A23F0005353610E4B89
:104890000E4A1A6000BF80BD0D00300000800D4040
:1048A0000D007000707600600D00E0000D0020002B
:1048B0001872008014390014186C00801C260080C7
:1048C00000C00F4000C00A40000000200046C32383
:1048D00080B586B000AF03460A46FB8013467B7165
:1048E000B7F906301B0A7B61FB8803F01F033B61AD
:1048F0007B69072B06D90E4B0E4A40F2DE510E485B
:1049000000F0D4F97B699A000C4B1344FB6003223E
:104910003B6902FA03F17A793B6902FA03F31A461A
:10492000F86802F06CFA00BF1837BD4680BD00BFC2
:104930002C720060B07600600876006068C00F409E
:1049400080B584B002AF40F2024002F080FA114A12
:104950003B1D1268114619800233120C1A703B1D60
:104960001A4603210C48FEF737FB002301930B4B3B
:104970000093002300220521094802F077FA094B31
:10498000DB6E084A23F00803D36600BF0837BD4634
:1049900080BD00BFAC76006000C01B4038831F4064
:1049A00048811F4000C00A4053B94AB9002908BFD6
:1049B00000281CBF4FF0FF314FF0FF3000F074B9FA
:1049C000ADF1080C6DE904CE00F006F8DDF804E066
:1049D000DDE9022304B070472DE9F047089D044645
:1049E0008E46002B4DD18A42944669D9B2FA82F2A2
:1049F00052B101FA02F3C2F1200120FA01F10CFADE
:104A000002FC41EA030E94404FEA1C48210CBEFB15
:104A1000F8F61FFA8CF708FB16E341EA034306FB9E
:104A200007F199420AD91CEB030306F1FF3080F02D
:104A30001F81994240F21C81023E63445B1AA4B27A
:104A4000B3FBF8F008FB103344EA034400FB07F71C
:104A5000A7420AD91CEB040400F1FF3380F00A815D
:104A6000A74240F207816444023840EA0640E41B52
:104A700000261DB1D4400023C5E900433146BDE8FE
:104A8000F0878B4209D9002D00F0EF800026C5E9A0
:104A9000000130463146BDE8F087B3FA83F6002EB8
:104AA0004AD18B4202D3824200F2F980841A61EB30
:104AB000030301209E46002DE0D0C5E9004EDDE74E
:104AC00002B9FFDEB2FA82F2002A40F09280A1EB36
:104AD0000C014FEA1C471FFA8CFE0126200CB1FB8B
:104AE000F7F307FB131140EA01410EFB03F0884284
:104AF00008D91CEB010103F1FF3802D2884200F211
:104B0000CB804346091AA4B2B1FBF7F007FB1011A2
:104B100044EA01440EFB00FEA64508D91CEB040440
:104B200000F1FF3102D2A64500F2BB800846A4EB9B
:104B30000E0440EA03409CE7C6F12007B34022FA86
:104B400007FC4CEA030C20FA07F401FA06F31C43B5
:104B5000F9404FEA1C4900FA06F3B1FBF9F8200CC2
:104B60001FFA8CFE09FB181140EA014108FB0EF008
:104B7000884202FA06F20BD91CEB010108F1FF3A58
:104B800080F08880884240F28580A8F10208614464
:104B9000091AA4B2B1FBF9F009FB101144EA014172
:104BA00000FB0EFE8E4508D91CEB010100F1FF341D
:104BB0006CD28E456AD90238614440EA0840A0FBB5
:104BC0000294A1EB0E01A142C846A64656D353D08B
:104BD0005DB1B3EB080261EB0E0101FA07F722FAAF
:104BE00006F3F1401F43C5E9007100263146BDE8D8
:104BF000F087C2F12003D8400CFA02FC21FA03F33B
:104C0000914001434FEA1C471FFA8CFEB3FBF7F0BB
:104C100007FB10360B0C43EA064300FB0EF69E42E0
:104C200004FA02F408D91CEB030300F1FF382FD279
:104C30009E422DD9023863449B1B89B2B3FBF7F621
:104C400007FB163341EA034106FB0EF38B4208D9FA
:104C50001CEB010106F1FF3816D28B4214D9023E3B
:104C60006144C91A46EA004638E72E46284605E759
:104C70000646E3E61846F8E64B45A9D2B9EB02082A
:104C800064EB0C0E0138A3E74646EAE7204694E7BA
:104C90004046D1E7D0467BE7023B614432E73046ED
:104CA00009E76444023842E7704700BF1FB5144665
:104CB0001A46094B1B680546D8684CB1074B009152
:104CC000CDE9013406492B4600F014F802F0A5F9AD
:104CD000044B1C46F3E700BF040000202877006067
:104CE0003577006063770060014B1868704700BF3C
:104CF000040000200EB403B5014603AB054853F889
:104D0000042B0068019300F0E7F802B05DF804EBB3
:104D100003B070470400002037B5002944D051F893
:104D2000043C0190002BA1F10404B8BFE41800F08A
:104D3000BBFD1E4A0198136833B96360146003B069
:104D4000BDE8304000F0B6BDA34208D9256861191E
:104D50008B4201BF19685B6849192160EDE71A466B
:104D60005B680BB1A342FAD911685518A5420BD163
:104D7000246821445418A3421160E0D11C685B6888
:104D8000536021441160DAE702D90C230360D6E7AF
:104D9000256861198B4204BF19685B68636004BFB2
:104DA000491921605460CAE703B030BDD00000202B
:104DB00070B50E4E0C463168054611B900F0E2FAA6
:104DC00030602146284600F0DDFA431C0AD0C41C9E
:104DD00024F00304A04207D0211A284600F0D2FA9A
:104DE000013001D14FF0FF34204670BDD4000020C7
:104DF0002DE9F041CD1C25F0030508350C2D38BFF9
:104E00000C25002D074601DBA94205D90C233B6088
:104E100000263046BDE8F0812E4E00F045FD336897
:104E20001C4634BB29463846FFF7C2FF431C0446E4
:104E30004DD134682646002E40D12368314638468D
:104E400004EB030800F09EFA80453AD1216803354F
:104E50006D1A25F0030508350C2D38BF0C252946A1
:104E60003846FFF7A5FF01302BD023682B44236081
:104E70000EE02268521B1ED40B2A16D96119A342D8
:104E8000256018BF5960636808BF316062514B608C
:104E9000384604F10B0600F00DFD26F00706231D31
:104EA000F21AB6D09B1BA350B3E76268A3420CBFB3
:104EB00032605A60ECE723466468B2E734467668AD
:104EC000B9E70C233B60384600F0F4FCA1E725600D
:104ED000DEE700BFD00000202DE9F04F0D469DB069
:104EE00014469846064618B183690BB900F01EFCBB
:104EF000894B9D421BD175686B6ED90705D4AB8970
:104F00009A0502D4A86D02F0C5F8AB891B0701D53C
:104F10002B69EBB92946304600F096FAC0B16B6EAA
:104F2000DC070ED54FF0FF301DB0BDE8F08F7B4B96
:104F30009D4201D1B568DFE7794B9D4208BFF56816
:104F4000DAE7AB899805EDD4A86D02F0A4F8E9E79B
:104F50000023099320238DF82930CDF80C803023CD
:104F6000DFF8C0818DF82A304FF0010923469A46B8
:104F700013F8012B0AB1252AF9D1BAEB040B0BD097
:104F80005B4622462946304601F0C0FF013000F062
:104F9000AA80099A5A4409929AF80030002B00F02E
:104FA000A28000234FF0FF32CDE905230AF1010A68
:104FB000049307938DF853301A935446052214F83E
:104FC000011B5848FDF7E4F9049AD8B9D10644BF4B
:104FD00020238DF85330130744BF2B238DF8533013
:104FE0009AF800302A2B15D0079A544600204FF02B
:104FF0000A0C214611F8013B303B092B4ED9B0B1C8
:10500000079214E0A0EB080309FA03F31343049397
:10501000A246D2E7039B191D1B680391002BBBBF5F
:105020005B4242F0020207930793B8BF04922378D1
:105030002E2B0CD163782A2B35D1039B1A1D1B68AC
:105040000392002BB8BF4FF0FF3302340593DFF813
:10505000E4A0217803225046FDF79AF940B140239D
:10506000A0EB0A0003FA00F0049B0343013404930D
:1050700014F8011B2C488DF828100622FDF788F93A
:1050800000283FD0294B1BBB039B073323F00703AA
:1050900008330393099B3B44099367E70CFB0232F7
:1050A0000C460120A5E700230134059319464FF073
:1050B0000A0C204610F8012B303A092A03D9002B9C
:1050C000C5D00591C3E70CFB012104460123F0E79D
:1050D00003AB00932A46164B04A93046AFF3008079
:1050E0000746781CD6D16B6ED90705D4AB899A05D3
:1050F00002D4A86D01F0CFFFAB895B063FF512AF7C
:10510000099811E703AB00932A46094B04A93046DE
:1051100000F012F8E4E700BFE8760060087700606E
:10512000C8760060647700606E7700600000000061
:105130000D6F00606A7700602DE9FF470F7E0C9DC0
:10514000782F914680460C469A4601F1430207D8D3
:10515000622F0AD8002F00F0D880582F00F0A380CB
:1051600004F1420584F842703AE0A7F16303152B7D
:10517000F6D801A151F823F0D1510060E55100604B
:1051800061510060615100606151006061510060D7
:10519000E551006061510060615100606151006043
:1051A00061510060F152006015520060D3520060FE
:1051B00061510060615100601353006061510060F3
:1051C000155200606151006061510060DB52006067
:1051D0002B681A1D1B682A6004F1420584F84230CE
:1051E0000123A3E020682968060601F104030AD51B
:1051F0000E682B60002E03DA2D23764284F84330AC
:105200005E480A2319E00E682B6010F0400F18BFAB
:1052100036B2EFE72B682068191D2960010601D519
:105220001E6802E04606FBD51E8854486F2F0CBF4F
:1052300008230A23002184F843106568A560002D27
:10524000A2BF216821F0040121600EB9002D4DD0CC
:105250001546B6FBF3F103FB1167C75D05F8017D49
:105260003746BB420E46F4D9082B0BD12368DE0724
:1052700008D5236961689942DEBF302305F8013CF7
:1052800005F1FF35521B2261CDF800A04B4603AA61
:105290002146404601F04CFE01304CD14FF0FF302A
:1052A00004B0BDE8F087354881F845702968236867
:1052B00051F8046B29601D0614D5DF0744BF43F085
:1052C000200323601EB9236823F0200323601023EA
:1052D000B0E7236843F0200323607823284884F84C
:1052E0004530E3E7590648BFB6B2E6E71546BBE7E7
:1052F0002B6826686169181D286035061B6801D572
:10530000196002E07006FBD5198000232361154661
:10531000BAE72B681A1D2A601D68626800212846BA
:10532000FDF736F808B1401B606063682361002315
:1053300084F84330A8E723692A4649464046D047C7
:105340000130ABD023689B0713D4E068039B9842DD
:10535000B8BF1846A4E70123324649464046D04725
:1053600001309BD00135E36803995B1AAB42F2DC54
:10537000EBE7002504F11906F5E700BF757700603B
:105380008677006038B5064D0023044608462B603A
:1053900000F018FB431C02D12B6803B1236038BD19
:1053A000D8000020F8B50E461446054618B18369AA
:1053B0000BB900F0BBF9214B9C422BD16C68A3695F
:1053C000A360A3891A072FD523696BB323692068CB
:1053D000C01A6369F6B28342374604DC2146284688
:1053E00000F026F930BBA368013BA36023685A1C78
:1053F00022601E7063690130834204D0A389DB07F9
:1054000006D50A2E04D12146284600F011F988B9A4
:105410003846F8BD0A4B9C4201D1AC68CFE7094B36
:105420009C4208BFEC68CAE72146284600F00CF809
:105430000028CBD04FF0FF37EAE700BFE8760060E6
:1054400008770060C8760060324B70B51D6806466C
:105450000C4625B1AB6913B9284600F067F92E4B0D
:105460009C420FD16C68A389B4F90C2019072CD485
:10547000DD0611D40923336042F04003A3814FF0CD
:10548000FF303EE0254B9C4201D1AC68EBE7244B5A
:105490009C4208BFEC68E6E7580712D5616B41B142
:1054A00004F14403994202D03046FFF735FC002353
:1054B0006363A38923F02403A3810023636023692A
:1054C0002360A38943F00803A38123694BB9A3890F
:1054D00003F42073B3F5007F03D02146304600F07B
:1054E000A3F9A089B4F90C2010F001030AD000231D
:1054F000A36063695B42A361236943B910F0800034
:10550000BAD170BD810758BF6369A360F4E700207A
:10551000F7E700BF04000020E8760060087700602D
:10552000C87600608A892DE9F041054610070C46CF
:1055300058D44B68002B05DC0B6C002B02DC0020E0
:10554000BDE8F081E66A002EF9D0002312F4805203
:105550002F682B6032D0606DA3895A0705D5636828
:10556000C01A636B0BB1236CC01A00230246E66AB3
:10557000216A2846B047431CA38906D129681D2902
:105580002CD82A4ACA40D60728D500226260D904FE
:105590002269226004D5421C01D12B6803B96065E1
:1055A000616B2F600029CAD004F14403994202D0F4
:1055B0002846FFF7B1FB00206063C1E7216A0123A1
:1055C0002846B047411CC7D12B68002BC4D01D2BE7
:1055D00001D0162B01D12F60B1E7A38943F040031E
:1055E000A381ADE70F69002FA9D093070E6808BF0C
:1055F0004B690F6018BF0023A6EB07088B60B8F15A
:10560000000F9CDD216AA66A43463A462846B04709
:10561000002806DCA38943F04003A3814FF0FF304C
:105620008EE70744A8EB0008E9E700BF010040202F
:1056300038B50B6905460C4613B90025284638BD18
:1056400018B183690BB900F071F8144B9C421BD15F
:105650006C68B4F90C30002BEFD0626ED00704D424
:10566000990502D4A06D01F015FD28462146FFF7EB
:1056700059FF636EDA070546E0D4A3899B05DDD4A4
:10568000A06D01F008FDD9E7054B9C4201D1AC6843
:10569000DFE7044B9C4208BFEC68DAE7E87600607D
:1056A00008770060C8760060002310B50446C0E9A2
:1056B0000033C0E90433836081814366C281836122
:1056C000194608225C3001F002FC054B6362054B71
:1056D000A362054BE362054B2462236310BD00BF48
:1056E000377100605971006091710060B5710060A0
:1056F000014901F0AFBC00BF31560060014801F024
:10570000C9BC00BFE2000020014801F0C4BC00BFDA
:10571000E2000020014801F0BDBC00BFE300002012
:10572000014801F0B8BC00BFE300002010B50446FA
:10573000FFF7F0FFA3691BB1BDE81040FFF7F0BF12
:10574000C4E912332365134B134A1B68A262A342B8
:1057500004BF0123A361204600F020F860602046CA
:1057600000F01CF8A060204600F018F80022E0606D
:1057700004216068FFF798FFA06801220921FFF764
:1057800093FFE06802221221FFF78EFF0123A3613D
:10579000D2E700BFC4760060F1560060F8B5074656
:1057A000FFF7ACFF1E4B1E68B36913B93046FFF715
:1057B000BDFF4836D6E90134013B03D533680BB34E
:1057C0003668F7E7B4F90C50D5B9164BE36004F12D
:1057D0005800656601F05DFCFFF796FFC4E90155CE
:1057E000C4E904552560A5610822294604F15C003E
:1057F00001F06DFBC4E90D55C4E912552046F8BD12
:105800006834D9E70421384601F00EFC04463060C4
:105810000028D5D1FFF778FF0C233B60EEE700BFEF
:10582000C47600600100FFFF8B8973B59D070646B3
:105830000C4607D504F1470323602361012363610C
:1058400002B070BD01AB6A4601F026FC0099054626
:105850003046FFF7CDFA48B9B4F90C309A05EFD4C9
:1058600023F0030343F00203A381E3E70D4BB3628C
:10587000A389206043F08003A381009B6361019BA7
:1058800020615BB1B4F90E10304600F067F828B122
:10589000A38923F0030343F00103A381A0890543F7
:1058A000A581CDE7F1560060014801F0F3BB00BFD0
:1058B000E1000020014801F0EEBB00BFE100002044
:1058C000024B0146186801F00CBC00BF0400002028
:1058D00038B5074D00230446084611462B6000F0FA
:1058E00068FE431C02D12B6803B1236038BD00BFA2
:1058F000D800002038B5074D04460846114600225E
:105900002A601A4600F08CFE431C02D12B6803B1BA
:10591000236038BDD800002038B5064D002304466A
:1059200008462B6000F098FE431C02D12B6803B19F
:10593000236038BDD800002038B5074D0023044649
:10594000084611462B6000F093FE431C02D12B68E1
:1059500003B1236038BD00BFD800002038B5064D24
:105960000023044608462B6000F092FE431C02D13F
:105970002B6803B1236038BDD800002038B5074D2F
:1059800004460846114600222A601A4600F08BFEA3
:10599000431C02D12B6803B1236038BDD80000201E
:1059A00038B5074D04460846114600222A601A46BB
:1059B00000F019FE431C02D12B6803B1236038BDEF
:1059C000D800002070B50C4D2B680BB90B4B2B6029
:1059D00003302E6820F003043444204600F010F811
:1059E00010B92C60304670BDFFF77EF90C230360C0
:1059F0004FF0FF36F6E700BFDC000020E400002097
:105A0000044B23B1984234BF002001207047184650
:105A1000704700BFE410002080B586B000AFF8608A
:105A2000B9603B601346FB7100237B6100237B61FF
:105A30001CE0BB681B6801337F2B08D9BB681B685F
:105A40001946F868FCF7F4FCBB6800221A60BB68D2
:105A50001B681A46FB681344FA791A70BB681B6806
:105A60005A1CBB681A607B6901337B617A693B68A9
:105A70009A42DEDB00BF00BF1837BD4680BD0FB4C1
:105A800080B582B000AF00237B6007F114033B6058
:105A900039683869FCF782FD78607B6818460837FA
:105AA000BD46BDE8804004B0704780B485B000AF0B
:105AB000786039600023FB600023FB7220E07B6884
:105AC0001B685A1C7B681A607B681B681B78BB725A
:105AD000BB7A2F2B0DD9BB7A392B0AD8FA6813461B
:105AE0009B0013445B001A46BB7A1344303BFB60B7
:105AF00006E07B681B685A1E7B681A600123FB72F4
:105B0000FB7A002BDBD0FB6818461437BD465DF8E6
:105B1000047B704780B489B000AFF860B9607A60E8
:105B2000FB681B68FB610623BB610023FB75FB69F7
:105B30000133FB61FB691B782E2B24D10023BB6151
:105B40000023FB751BE0FB690133FB61FB691B78DC
:105B5000BB75BB7D2F2B0DD9BB7D392B0AD8BA69FC
:105B600013469B0013445B001A46BB7D1344303B35
:105B7000BB6104E0FB69013BFB610123FB75FB7D1D
:105B8000002BE0D002E0FB69013BFB61FB68FA6996
:105B90001A60BB6918462437BD465DF8047B704720
:105BA00080B485B000AF0346FB710023FB60FB7936
:105BB0006F2B08D0FB79622B05D0FB79702B02D0BC
:105BC000FB79752B01D10123FB60FB681846143764
:105BD000BD465DF8047B704780B485B000AF0346D6
:105BE000FB710023FB60FB79642B02D0FB79692BEE
:105BF00001D10123FB60FB6818461437BD465DF8F0
:105C0000047B704790B585B000AFF860B9607A60EA
:105C1000FB70BA687B68D31A7C6A2022F96AB86A7A
:105C2000A04708E03B6A5A1E3A621A787C6A012350
:105C3000F96AB86AA0473B6A1B78002BF2D100BF13
:105C400000BF1437BD4690BD90B585B000AFF86079
:105C5000B9607A60FB70BA687B68D31A7C6A2022CC
:105C6000F96AB86AA04708E03B6A5A1E3A621A7895
:105C70007C6A0123F96AB86AA0473B6A1B78002B4B
:105C8000F2D100BF00BF1437BD4690BD80B485B0CF
:105C900000AF0346FB710023FB60FB79662B02D04B
:105CA000FB79462B01D10123FB60FB6818461437B2
:105CB000BD465DF8047B704780B485B000AF0346F5
:105CC000FB710023FB60FB79782B02D0FB79582B0A
:105CD00001D10123FB60FB6818461437BD465DF80F
:105CE000047B704780B485B000AF78607B681B6828
:105CF000FB60FB680133FB60FB681B78FB72FB7A7F
:105D0000682BF6D0FB7A6C2BF3D0FB68013BFB6071
:105D10007B68FA681A6000BF1437BD465DF8047BE3
:105D2000704780B485B000AF0346FB71FB796F2BE1
:105D300002D10823FB730DE0FB79622B02D1022311
:105D4000FB7307E0FB79702B02D11023FB7301E09A
:105D50000A23FB73FB7B18461437BD465DF8047BB2
:105D6000704780B48FB000AFF860B9607A603B6074
:105D70000023FB62FB68BB62BB6A5A1CBA6200224A
:105D80001A7000237B6000237B6200233B620023A8
:105D9000FB6100237B630023BB6100233B63002383
:105DA0007B61BB681B687B637B6B002B30D1BB6A5C
:105DB00030221A70FB6A0133FB62FB6A2CE07A6BBB
:105DC0003B68B2FBF3F3BB61BB693A6802FB03F3C8
:105DD0007A6BD31A3B633B6B092B03D83B6B303395
:105DE0003B630AE097F84030002B01D0412200E0ED
:105DF00061223B6B13440A3B3B63BB697B63BB6A19
:105E00005A1CBA623A6BD2B21A70FB6A0133FB6257
:105E10007B6B002BD3D1FB6A18463C37BD465DF83F
:105E2000047B704790B5A1B004AFF860B9607A60A8
:105E30003B6000237B6600233B6600233B6200231C
:105E4000FB650023BB61FB68BB64BB6C1B78002B4C
:105E500000F03881BB6C1B7887F85B3097F85B30BB
:105E6000252B0BD097F85B2007F120013C6801231C
:105E70007868A047BB6C0133BB6422E1012387F83B
:105E80006B3007F1080207F1480311461846FFF787
:105E90000CFE786507F1080107F148030022184657
:105EA000FFF738FE386507F148031846FFF71AFF79
:105EB000BB6C0133BB64BB6C1B7887F85B3097F815
:105EC0005B301846FFF788FE0346012B25D1BB68DF
:105ED0001A1DBA601B68FB6107F11C0107F1240061
:105EE00097F86B3000930A230122FFF73AFF3866D8
:105EF00007F124023B6E13447B663A6E07F12003E0
:105F000003937B6802933B6801937B6E00930023AD
:105F1000796D0020FFF776FED0E097F85B301846E9
:105F2000FFF7B4FE0346012B06D1BB68073323F00D
:105F300007030833BB60C1E097F85B301846FFF7F2
:105F4000BBFE0346012B2ED197F85B30782B02D194
:105F5000002387F86B30BB681A1DBA601B68BB61F1
:105F600007F1180107F1240097F86B300093102314
:105F70000022FFF7F6FE386607F124023B6E134459
:105F80007B663A6E97F86B1007F1200303937B68EA
:105F900002933B6801937B6E00930B46796D002062
:105FA000FFF752FE8AE097F85B301846FFF7F8FDDE
:105FB0000346012B3ED197F85B30702B0DD1BB68A7
:105FC0001A1DBA601B687B6107F1140107F1180301
:105FD0000422184600F06DFF04E0BB681A1DBA6089
:105FE0001B68BB6197F85B301846FFF79AFE0346C3
:105FF000FB6507F1180107F1240097F86B30009357
:10600000FB6D0022FFF7ADFE386607F124023B6E00
:1060100013447B663A6E07F1200303937B68029377
:106020003B6801937B6E00930023796D0020FFF79E
:10603000E9FD43E097F85B30632B0DD1BB681A1D77
:10604000BA601B68FB64FB6CDAB207F120013C68A4
:1060500001237868A04731E097F85B30732B25D196
:10606000BB681A1DBA601B68FB66FB6E002B25D04F
:10607000F86E00F0CAFF03463B667A6D3B6ED31A9A
:1060800007F120013C6820227868A04709E0FB6EF8
:106090005A1CFA661A7807F120013C6801237868D7
:1060A000A047FB6E1B78002BF1D107E097F85B202F
:1060B00007F120013C6801237868A047BB6C0133DD
:1060C000BB64C2E600BF3B6A18467437BD4690BD4C
:1060D00008B5FCF75AF908BD08B5FCF756F908BD34
:1060E00008B5FCF752F908BD08B5FCF74EF908BD34
:1060F00008B5FCF74AF908BD08B5FCF746F908BD34
:1061000008B5FCF742F908BD08B5FCF73EF908BD33
:1061100008B5FCF73AF908BD08B5FCF736F908BD33
:1061200008B5FCF732F908BD08B5FCF72EF908BD33
:1061300008B5FCF72AF908BD08B5FCF726F908BD33
:1061400008B5FCF722F908BD08B5FCF71EF908BD33
:1061500008B5FCF71AF908BD08B5FCF716F908BD33
:1061600008B5FCF712F908BD08B5FCF70EF908BD33
:1061700008B5FDF7AFFA08BD08B5FDF7BFFA08BDD1
:1061800008B5FDF7CFFA08BD08B5FDF7DFFA08BD81
:1061900008B5FDF7EFFA08BD08B5FDF7FFFA08BD31
:1061A00008B5FDF70FFB08BD08B5FDF71FFB08BDDF
:1061B00008B5FCF7EAF808BD08B5FCF7E6F808BD35
:1061C00008B5FCF7E2F808BD08B5FCF7DEF808BD35
:1061D00008B5FCF7DAF808BD08B5FCF7D6F808BD35
:1061E00008B5FCF7D2F808BD08B5FCF7CEF808BD35
:1061F00008B5FCF7CAF808BD08B5FCF7C6F808BD35
:1062000008B5FCF7C2F808BD08B5FCF7BEF808BD34
:1062100008B5FCF7BAF808BD08B5FCF7B6F808BD34
:1062200008B5FCF7B2F808BD08B5FCF7AEF808BD34
:1062300008B5FCF7AAF808BD08B5FCF7A6F808BD34
:1062400008B5FCF7A2F808BD08B5FCF79EF808BD34
:1062500008B5FCF79AF808BD08B5FCF796F808BD34
:1062600008B5FCF792F808BD08B5FCF78EF808BD34
:1062700008B5FCF78AF808BD08B5FCF786F808BD34
:1062800008B5FCF782F808BD08B5FCF77EF808BD34
:1062900008B5FCF77AF808BD08B5FCF776F808BD34
:1062A00008B5FCF772F808BD08B5FCF76EF808BD34
:1062B00008B5FCF76AF808BD08B5FCF766F808BD34
:1062C00008B5FCF762F808BD08B5FCF75EF808BD34
:1062D00008B5FCF75AF808BD08B5FCF756F808BD34
:1062E00008B5FCF752F808BD08B5FCF74EF808BD34
:1062F00008B5FCF74AF808BD08B5FCF746F808BD34
:1063000008B5FCF742F808BD08B5FCF73EF808BD33
:1063100008B5FCF73AF808BD08B5FCF736F808BD33
:1063200008B5FCF732F808BD08B5FCF72EF808BD33
:1063300008B5FCF72AF808BD08B5FCF726F808BD33
:1063400008B5FCF722F808BD08B5FCF71EF808BD33
:1063500008B5FCF71AF808BD08B5FCF716F808BD33
:1063600008B5FCF712F808BD08B5FCF70EF808BD33
:1063700008B5FCF70AF808BD08B5FCF706F808BD33
:1063800008B5FCF702F808BD08B5FBF7FEFF08BD2D
:1063900008B5FBF7FAFF08BD08B5FBF7F6FF08BD27
:1063A00008B5FBF7F2FF08BD08B5FBF7EEFF08BD27
:1063B00008B5FBF7EAFF08BD08B5FBF7E6FF08BD27
:1063C00008B5FBF7E2FF08BD08B5FBF7DEFF08BD27
:1063D00008B5FBF7DAFF08BD08B5FBF7D6FF08BD27
:1063E00008B5FBF7D2FF08BD08B5FBF7CEFF08BD27
:1063F00008B5FBF7CAFF08BD08B5FBF7C6FF08BD27
:1064000008B5FBF7C2FF08BD08B5FBF7BEFF08BD26
:1064100008B5FBF7BAFF08BD08B5FBF7B6FF08BD26
:1064200008B5FBF7B2FF08BD08B5FBF7AEFF08BD26
:1064300008B5FBF7AAFF08BD08B5FBF7A6FF08BD26
:1064400008B5FBF7A2FF08BD08B5FBF79EFF08BD26
:1064500008B5FBF79AFF08BD08B5FBF796FF08BD26
:1064600008B5FBF792FF08BD08B5FBF78EFF08BD26
:1064700008B5FBF78AFF08BD08B5FBF786FF08BD26
:1064800008B5FBF782FF08BD08B5FBF77EFF08BD26
:1064900008B5FBF77AFF08BD08B5FBF776FF08BD26
:1064A00008B5FBF772FF08BD08B5FBF76EFF08BD26
:1064B00008B5FBF76AFF08BD08B5FBF766FF08BD26
:1064C00008B5FBF762FF08BD08B5FBF75EFF08BD26
:1064D00008B5FBF75AFF08BD08B5FBF756FF08BD26
:1064E00008B5FBF752FF08BD08B5FBF74EFF08BD26
:1064F00008B5FBF74AFF08BD08B5FBF746FF08BD26
:1065000008B5FBF742FF08BD08B5FBF73EFF08BD25
:1065100008B5FBF73AFF08BD08B5FBF736FF08BD25
:1065200008B5FBF732FF08BD08B5FBF72EFF08BD25
:1065300008B5FBF72AFF08BD08B5FBF726FF08BD25
:1065400008B5FBF722FF08BD08B5FBF71EFF08BD25
:1065500008B5FBF71AFF08BD80B483B000AF7860C0
:1065600039607B683A68C3F88C2000BF0C37BD46A1
:106570005DF8047B704704207146084202D0EFF3B7
:10658000098001E0EFF3088081690A884BF6AB636C
:106590009A4200D0FEE702318161202101607047FC
:1065A00000BF80B400AF01231846BD465DF8047BF0
:1065B000704780B582B000AF78603960FEF794FB19
:1065C000034616221A604FF0FF3318460837BD46BF
:1065D00080BD80B582B000AF78604FF0FF31786841
:1065E000FFF7E7FFFEE780B586B000AFF860B9605F
:1065F0007A6000237B610AE0AFF300800146BB684C
:106600005A1CBA60CAB21A707B6901337B617A691D
:106610007B689A42F0DB7B6818461837BD4680BD20
:1066200080B586B000AFF860B9607A6000237B6106
:1066300009E0BB685A1CBA601B781846AFF30080AB
:106640007B6901337B617A697B689A42F1DB7B6805
:1066500018461837BD4680BD80B483B000AF78605F
:106660004FF0FF3318460C37BD465DF8047B70478A
:1066700080B483B000AF786039603B684FF400525B
:106680005A60002318460C37BD465DF8047B7047FE
:1066900080B483B000AF7860012318460C37BD4644
:1066A0005DF8047B704780B485B000AFF860B960D6
:1066B0007A60002318461437BD465DF8047B7047A6
:1066C00080B483B000AF786039603B681B0CC3F3C3
:1066D0000B027B6813441B6803F48033002B14BF48
:1066E00001230023DBB218460C37BD465DF8047B5E
:1066F000704780B483B000AF786039603B681B0C92
:10670000C3F30B027B6813441A683B6803F01F0352
:1067100022FA03F303F00103002B14BF012300232B
:10672000DBB218460C37BD465DF8047B704780B578
:1067300082B000AF786039603B681B0CC3F30B027A
:106740007B6813441B689B0B03F00303002B03D1EE
:10675000FBF7FCFF034600E0002318460837BD4660
:1067600080BD80B48BB000AFF860B9607A60FB6820
:106770007B617B6953E8003F3B613B697B62BB689F
:10678000DA437B6A13407A6813437B627B6A3B621D
:10679000FB68FB61F9693A6A41E80023BB61BB69A8
:1067A000002BE4D100BF00BF2C37BD465DF8047B51
:1067B000704780B582B000AF0346FB80B7F9063062
:1067C00003211846FCF7A4FB00BF0837BD4680BD77
:1067D00080B584B000AFF860B9601346FB71FB79F7
:1067E0001A46B968F868FCF773FC00BF1037BD465D
:1067F00080BD80B48BB000AFF860B9607A60FB6890
:106800007B617B6953E8003F3B613B697B62BB680E
:10681000DA437B6A13407A6813437B627B6A3B628C
:10682000FB68FB61F9693A6A41E80023BB61BB6917
:10683000002BE4D100BF00BF2C37BD465DF8047BC0
:10684000704780B582B000AF0346FB80B7F90630D1
:1068500003211846FCF7BAFC00BF0837BD4680BDCF
:1068600080B483B000AF78607B689B6843F002021D
:106870007B689A607B689B6823F002027B689A6061
:1068800000BF0C37BD465DF8047B704780B400AF95
:1068900000BFBD465DF8047B704780B485B000AF93
:1068A00078607B68002B02D10023FB8102E042F676
:1068B000AF73FB81FB8918461437BD465DF8047B36
:1068C000704780B483B000AF78600B46FB70FA78F5
:1068D0007B689A6000BF0C37BD465DF8047B70474B
:1068E00080B500AF0120FDF725F9BFF34F8F00BF42
:1068F00000BF80BD80B500AF0220FDF71BF9BFF3DC
:106900004F8F00BF00BF80BD80B483B000AFEFF3F6
:1069100010833B603B687B6072B600BF7B681846A3
:106920000C37BD465DF8047B704780B485B000AF7E
:1069300078607B68FB60FB6883F3108800BF00BF52
:106940001437BD465DF8047B704780B586B000AF54
:10695000F860B9607A603B6043F22153FB82FB68C8
:106960001B78012B08D1FB680C333A68796818460C
:1069700000F0E0F80346FB82FB8A18461837BD4654
:1069800080BD80B586B000AFF860B9607A60FB6802
:10699000002BFCD0BB68002BFCD07B68002BFCD00C
:1069A000FB687B617B691B683B613B69002BFCD00A
:1069B0007B68BA6879693869FFF7C7FF03461846EC
:1069C0001837BD4680BD80B584B000AF78603960AF
:1069D00043F22153FB813B68002BFCD07B68002BEA
:1069E000FCD000BF7B68BB6014220021B86800F0B7
:1069F0006EFA3B681A7ABB681A703B681B7A012BE7
:106A00000BD1BB6803F10C023B68DB6819461046EA
:106A100000F071F80346FB8100E000BFFB891846D7
:106A20001037BD4680BD80B586B000AF7860396054
:106A30007B68002BFCD03B68002BFCD000BF7B6840
:106A40007B613B683B61FFF75FFFF8607B699B6898
:106A50005A1C7B699A60F868FFF767FF04220021DF
:106A6000386800F034FA3B697A691A6000231846E6
:106A70001837BD4680BD80B586B000AF78603960FC
:106A80000023FB827B68002BFCD03B68002BFCD0F2
:106A900000BF7B683B613B68FB60FFF735FFB86078
:106AA0003B695B68002B03D043F22253FB820AE070
:106AB0003B69FA685A6004220021386800F007FA3E
:106AC000FB683A691A60B868FFF72FFFFB8A18461F
:106AD0001837BD4680BD80B584B000AFF860B9609E
:106AE0007A607A68B968F868FFF74BFF0346184682
:106AF0001037BD4680BD80B584B000AF7860396086
:106B00000023FB813B68002BFCD07B68002BFCD072
:106B100000BF7B68BB60BB6839681846FCF772FF32
:106B20000346FB81FB89002BFCD1FB8918461037FB
:106B3000BD4680BD80B586B000AFF860B9607A60B0
:106B4000FB68002BFCD0BB68002BFCD07B68002BC3
:106B5000FCD0FB687B617B697A68B9681846FCF7F2
:106B6000A7FF034618461837BD4680BD80B483B0E2
:106B700000AF78607B689B6918460C37BD465DF8AE
:106B8000047B704780B483B000AF786039607B6865
:106B90003A689A6100BF0C37BD465DF8047B7047C8
:106BA00080B500AF0120FCF7EBFFBFF34F8F00BFB4
:106BB00000BF80BD80B500AF0120FCF7E1FFBFF34F
:106BC0004F8F00BF00BF80BD80B500AF0220FCF733
:106BD000D7FFBFF34F8F00BF00BF80BD80B500AFB0
:106BE0000220FCF7CDFFBFF34F8F00BF00BF80BD79
:106BF00080B500AF0320FCF7C3FFBFF34F8F00BF8A
:106C000000BF80BD80B500AF0320FCF7B9FFBFF324
:106C10004F8F00BF00BF80BD80B500AF0420FCF7E0
:106C2000AFFFBFF34F8F00BF00BF80BD80B500AF87
:106C30000420FCF7A5FFBFF34F8F00BF00BF80BD4E
:106C400080B500AF0520FCF79BFFBFF34F8F00BF5F
:106C500000BF80BD80B500AF0520FCF791FFBFF3FA
:106C60004F8F00BF00BF80BD80B500AF0620FCF78E
:106C700087FF0720FCF784FF0820FCF781FF09202D
:106C8000FCF77EFFBFF34F8F00BF00BF80BD80B514
:106C900082B000AFFDF768F878607B6801224FF49E
:106CA000E1310120FBF7EEFB00BF0837BD4680BD98
:106CB00080B48BB000AFF860B9607A60FB687B612C
:106CC0007B6953E8003F3B613B697B62BB68DA4309
:106CD0007B6A13407A6813437B627B6A3B62FB6882
:106CE000FB61F9693A6A41E80023BB61BB69002B8B
:106CF000E4D100BF00BF2C37BD465DF8047B704770
:106D000080B582B000AF0346FB80B7F906300021A2
:106D10001846FDF75BFA00BF0837BD4680BD80B45A
:106D200085B000AFF860B9601346FB71FB79002BAA
:106D30000BD0BB681B0CC3F30B02FB68134404337A
:106D40001A464FF4803313600AE0BB681B0CC3F390
:106D50000B02FB68134408331A464FF48033136068
:106D600000BF1437BD465DF8047B704780B485B022
:106D700000AF78600B46FB701346BB70FB78032BAB
:106D800012D97B685A68FB78032101FA03F3DB43CD
:106D90001340FB60BB7803F00302FB789A40FB686A
:106DA0001A437B685A6011E07B685A68FB780721B8
:106DB00001FA03F3DB431340FB60BB7803F00702E7
:106DC000FB789A40FB681A437B685A6000BF14370F
:106DD000BD465DF8047B704780B500AFFDF760FAF3
:106DE00000BF80BD80B400AF00BFBD465DF8047B2E
:106DF000704780B500AFFFF7F5FF00BF80BD80B4DE
:106E00008BB000AFF860B9607A60FB687B617B692A
:106E100053E8003F3B613B697B62BB68DA437B6AB6
:106E200013407A6813437B627B6A3B62FB68FB61B9
:106E3000F9693A6A41E80023BB61BB69002BE4D1E0
:106E400000BF00BF2C37BD465DF8047B704780B59E
:106E500082B000AF0346FB80B7F906300321184625
:106E6000FDF736FD00BF0837BD4680BD80B485B054
:106E700000AFF860B9607A603B60BB6803F00F0157
:106E8000FB691B0103F01002FB680A431A607B6870
:106E9000002B02D07B683A681A6000BF1437BD46E9
:106EA0005DF8047B704780B500AFFDF749FD00BF7A
:106EB00080BD0A44914200F1FF3300D1704710B504
:106EC00011F8014B03F8014F9142F9D110BD024472
:106ED0000346934200D1704703F8011BF9E793681A
:106EE000013B002B10B4936008DA9469A34201DBE4
:106EF0000A2903D15DF8044BFEF754BA1368581CF5
:106F00001060197008465DF8044B7047F8B50646E6
:106F10000F461446D518AC4201D1002007E014F802
:106F2000011B3A463046FFF7DAFF431CF3D1F8BDA8
:106F30002DE9F047164699468A680B69DDF82080EE
:106F40009342B8BF1346336091F8432007460C467E
:106F50000AB1013333602368990642BF33680233B4
:106F60003360256815F0060506D104F1190AE368B7
:106F700032689B1AAB4226DC94F84320131E226829
:106F800018BF012392062BD404F143024946384628
:106F9000C04701301ED02368E568326803F006035D
:106FA000042B08BFAD1AA36822690CBF25EAE5755A
:106FB00000259342C4BF9B1AED1800261A34B5422F
:106FC0001AD1002008E00123524649463846C047FE
:106FD000013003D14FF0FF30BDE8F0870135C6E73F
:106FE000E1185A1C302081F84300224494F84510DF
:106FF00082F843100233C7E7012322464946384648
:10700000C0470130E6D00136D9E7034613F8012B1B
:10701000002AFBD1181A0138704708B50620FEF780
:107020004FFC0120FFF7D5FA70B568224D1E55437D
:107030000E4605F17401FDF7DBFE044640B1002168
:10704000C0E900160C30A06005F16802FFF73FFFB1
:10705000204670BD2DE9F8430646884600F14804F5
:107060000027D4E90195B9F1010905D52468002C60
:10707000F7D13846BDE8F883AB89012B07D9B5F9BC
:107080000E30013303D029463046C04707436835E8
:10709000E9E770477047704770B50E46B1F90E10BA
:1070A000002996B014461D4608DAB6F90C300022C5
:1070B0002A601A0610D44FF480630EE06A46FEF789
:1070C0003BFC0028F1DB019A02F47042A2F5005368
:1070D0005A425A412A60EEE740230020236016B04E
:1070E00070BD1F2938B504460D4604D91623036028
:1070F0004FF0FF3038BD426C12B152F821304BB91D
:10710000204600F016F82A4601462046BDE83840E1
:10711000FEF7DEBB012B0AD0591C03D116230360F6
:107120000120E7E7002442F8254028469847002040
:10713000E0E7FFF736BA10B50C46B1F90E10FEF7CE
:107140002FFC0028ABBF636DA3891B1823F4805369
:10715000ACBF6365A38110BD2DE9F0411F468B894B
:10716000DB0505460C46164605D5B1F90E1002237F
:107170000022FEF703FCA389B4F90E1023F4805318
:10718000A38132463B462846BDE8F041FEF7B2BB3C
:1071900010B50C46B1F90E10FEF7F0FB431CA389A5
:1071A00015BF606523F4805343F48053A38118BF57
:1071B000A38110BDB1F90E10FEF7AEBB48656C6C33
:1071C0006F20576F726C640A00FFFFFF21627970B5
:1071D0006173735874616C4F7363000066736C5F06
:1071E000636C6F636B2E630066616C736500FFFFF9
:1071F000434C4F434B5F496E697445787465726EBA
:10720000616C436C6B00FFFF434C4F434B5F476522
:1072100074506C6C4672657100FFFFFF40787D0111
:1072200080F0FA0200E1F50540597307696E646564
:1072300078203C3D2037554C0000000066736C5FA1
:10724000636C6F636B2E68000000000000801B40C1
:1072500000C01B4000001C4000401C4000000C40CF
:1072600000000042004000420080004200C0004296
:10727000FFFF1A011E001A020C031E01696E7374CF
:10728000616E6365203C2041525241595F53495A17
:107290004528735F6770696F4261736573290000E9
:1072A00066736C5F6770696F2E6300FF70696E2094
:1072B0003C2033325500FFFF4750494F5F4765740C
:1072C000496E7374616E636500FFFFFF434C4F436B
:1072D0004B5F436F6E74726F6C4761746500FFFFA4
:1072E0004750494F5F50696E577269746500FFFFE0
:1072F00000000000004018400080184000C0184006
:1073000000001940004019400080194000C0194099
:1073100000001A40FFFF18051C000C0018010203B2
:1073200006031A050E06FFFF696E7374616E6365CE
:10733000203C2041525241595F53495A4528735FBE
:107340006C7075617274426173657329000000008E
:1073500066736C5F6C70756172742E6300FFFFFF63
:107360004E554C4C20213D206461746100FFFFFFAD
:107370004E554C4C20213D20636F6E6669670000BE
:107380003055203C20636F6E6669672D3E626175E3
:1073900064526174655F4270730000002875696E05
:1073A00074385F742946534C5F46454154555245E5
:1073B0005F4C50554152545F4649464F5F53495ABE
:1073C000456E286261736529203E20636F6E666991
:1073D000672D3E74784669666F57617465726D619A
:1073E000726B00002875696E74385F742946534CBF
:1073F0005F464541545552455F4C50554152545F8C
:107400004649464F5F53495A456E28626173652964
:10741000203E20636F6E6669672D3E72784669660E
:107420006F57617465726D61726B00FF4C5055410E
:1074300052545F476574496E7374616E636500FFF3
:107440004C50554152545F496E697400434C4F4350
:107450004B5F436F6E74726F6C4761746500FFFF22
:107460004C50554152545F47657444656661756C74
:1074700074436F6E666967004C50554152545F57B4
:1074800072697465426C6F636B696E6700FFFFFF22
:1074900000000000004018400080184000C0184064
:1074A00000001940004019400080194000C01940F8
:1074B00000001A404E554C4C20213D2068616E64FE
:1074C0006C65000066736C5F616461707465725F07
:1074D0006C70756172742E6300000000636F6E66DD
:1074E00069672D3E696E7374616E6365203C202868
:1074F00073697A656F6628735F4C70756172744149
:107500006461707465724261736529202F2073690C
:107510007A656F66284C50554152545F54797065B6
:10752000202A2929000000004E554C4C20213D20E6
:10753000735F4C70756172744164617074657242FE
:107540006173655B636F6E6669672D3E696E737408
:10755000616E63655D00FFFF6C656E677468203E59
:107560002030550048414C5F55617274496E697412
:1075700000FFFFFF48414C5F5561727453656E64B4
:10758000426C6F636B696E6700FFFFFF00000000D5
:1075900000C01E4000001F400000000000801B4093
:1075A00000C01B4000001C4000401C4000000C407C
:1075B00000000042004000420080004200C0004243
:1075C00080FF500052005400560058009D009D005E
:1075D0009D009D0080FF5100530055005700590049
:1075E0009D009D009D009D006275737953686966DA
:1075F00074203C3D2043434D5F4E4F5F42555359ED
:107600005F57414954000000443A5C576F726B5C0D
:107610004E5850576F726B5C5465656E7379342E9B
:10762000315C4D494D585254313036325F50726F93
:107630006A6563745F4C4544546F67676C655C644E
:107640007269766572732F66736C5F636C6F636BC0
:107650002E6800FF64000000000000000100000030
:107660000100000060EA00000000000000000000CF
:10767000010101000100FFFF434C4F434B5F436F8B
:107680006E74726F6C4761746500FFFF434C4F432B
:107690004B5F53657444697600FFFFFF434C4F43D3
:1076A0004B5F5365744D757800FFFFFF010100FFCC
:1076B000434C4F434B5F436F6E74726F6C47617402
:1076C0006500FFFF0800002000000000000000002F
:1076D00000000000000000000000000000000000AA
:1076E000000000000000000000000000000000009A
:1076F000000000000000000000000000000000008A
:107700000000000000000000000000000000000079
:107710000000000000000000000000000000000069
:1077200000000000000000002C2066756E63746984
:107730006F6E3A2000617373657274696F6E2022F8
:10774000257322206661696C65643A2066696C6500
:1077500020222573222C206C696E652025642573F8
:1077600025730A00232D302B2000686C4C006566C1
:107770006745464700303132333435363738394182
:107780004243444546003031323334353637383998
:0877900061626364656600FF9D
:1077980000A4781F0800002000000000E8760060C0
:1077A80008770060C8760060000000000000000054
:1077B80000000000000000000000000000000000C1
:1077C80000000000000000000000000000000000B1
:1077D80000000000000000000000000000000000A1
:1077E8000000000000000000000000000000000091
:0877F800000000000000000089
:08780000D8D1FF7F0100000058
:04000005600022F580
:00000001FF
